:020000040800F2
:1000000000200020C93D0008D13A0008D53A000878
:1000100000000000000000000000000000000000E0
:10002000000000000000000000000000D93A0008B5
:100030000000000000000000DD3A0008E13A00087E
:10004000193E0008193E0008193E0008193E000834
:10005000193E0008193E0008193E0008193E000824
:10006000193E0008193E0008193E0008193E000814
:10007000193E0008193E000800000000193E000863
:1000800000000000193E0008000000000000000011
:10009000193E000800000000193E0008193E000843
:1000A000193E0008193E0008193E0008E93A000808
:1000B000F93A0008093B000800000000193E00085A
:1000C00010B5064C2378002B07D1054B002B02D02E
:1000D000044800E000BF0123237010BDD4010020BC
:1000E00000000000EC790008044B10B5002B03D091
:1000F0000349044800E000BF10BDC04600000000F6
:10010000D8010020EC7900080023C25C0133002AEA
:10011000FBD1581E7047000002B4714649084900DF
:10012000095C49008E4402BC7047C0460022430867
:100130008B4274D303098B425FD3030A8B4244D3AF
:10014000030B8B4228D3030C8B420DD3FF220902F1
:1001500012BA030C8B4202D31212090265D0030BB0
:100160008B4219D300E0090AC30B8B4201D3CB03A6
:10017000C01A5241830B8B4201D38B03C01A5241E8
:10018000430B8B4201D34B03C01A5241030B8B42EA
:1001900001D30B03C01A5241C30A8B4201D3CB02D5
:1001A000C01A5241830A8B4201D38B02C01A5241BA
:1001B000430A8B4201D34B02C01A5241030A8B42BD
:1001C00001D30B02C01A5241CDD2C3098B4201D3D5
:1001D000CB01C01A524183098B4201D38B01C01A53
:1001E000524143098B4201D34B01C01A52410309CA
:1001F0008B4201D30B01C01A5241C3088B4201D379
:10020000CB00C01A524183088B4201D38B00C01A25
:10021000524143088B4201D34B00C01A5241411A4C
:1002200000D20146524110467047FFE701B5002059
:1002300000F0F0F802BDC0460029F7D076E770471D
:1002400003460B437FD4002243088B4274D3030937
:100250008B425FD3030A8B4244D3030B8B4228D3D8
:10026000030C8B420DD3FF22090212BA030C8B42FE
:1002700002D31212090265D0030B8B4219D300E09E
:10028000090AC30B8B4201D3CB03C01A5241830B23
:100290008B4201D38B03C01A5241430B8B4201D3D3
:1002A0004B03C01A5241030B8B4201D30B03C01AFC
:1002B0005241C30A8B4201D3CB02C01A5241830A76
:1002C0008B4201D38B02C01A5241430A8B4201D3A5
:1002D0004B02C01A5241030A8B4201D30B02C01ACF
:1002E0005241CDD2C3098B4201D3CB01C01A524136
:1002F00083098B4201D38B01C01A524143098B42BF
:1003000001D34B01C01A524103098B4201D30B01A7
:10031000C01A5241C3088B4201D3CB00C01A5241CC
:1003200083088B4201D38B00C01A524143088B4291
:1003300001D34B00C01A5241411A00D2014652412A
:10034000104670475DE0CA0F00D04942031000D349
:100350004042534000229C4603098B422DD3030A9E
:100360008B4212D3FC22890112BA030A8B420CD3AE
:10037000890192118B4208D3890192118B4204D3D7
:1003800089013AD0921100E08909C3098B4201D357
:10039000CB01C01A524183098B4201D38B01C01A91
:1003A000524143098B4201D34B01C01A5241030908
:1003B0008B4201D30B01C01A5241C3088B4201D3B7
:1003C000CB00C01A524183088B4201D38B00C01A64
:1003D0005241D9D243088B4201D34B00C01A52413B
:1003E000411A00D20146634652415B10104601D3C8
:1003F0004042002B00D54942704763465B1000D352
:10040000404201B5002000F005F802BD0029F8D0F7
:1004100016E770477047C0468446101C62468C46FB
:10042000191C634600E0C0461FB500F0F1FF00282C
:1004300001D40021C8421FBD10B500F049FF404261
:10044000013010BD10B500F0E3FF002801DB0020F3
:1004500010BD012010BDC04610B500F0D9FF002826
:1004600001DD002010BD012010BDC04610B500F018
:100470006BFF002801DC002010BD012010BDC0462C
:1004800010B500F061FF002801DA002010BD012046
:1004900010BDC046002B11D1002A0FD1002900D178
:1004A000002802D00021C943081C07B4024802A159
:1004B0004018029003BDC0465DFFFFFF03B46846CD
:1004C00001B5029800F024F8019B9E4602B00CBCD6
:1004D0007047C04670B500220C4B04000D00FFF7BA
:1004E000CFFF002804D12000290001F0CFFD70BD0E
:1004F000064B00222000290001F064FA01F0C6FD3D
:1005000080231B069C466044F1E7C0460000E041A2
:10051000F0B54F464646D646C0B5040082B00D0041
:10052000914698468B422FD82CD04146484601F040
:10053000F1FE29000600200001F0ECFE331A9C4673
:10054000203B9A4600D576E04B46524693401F002A
:100550004B46624693401E00AF4228D825D05346F2
:10056000A41BBD41002B00DA7BE000220023009297
:100570000193012352469340019301236246934025
:10058000009318E08242D0D9002200230092019308
:100590000A9B002B01D01C605D600098019902B09D
:1005A0001CBC90469946A246F0BDA342D7D9002272
:1005B0000023009201936346002BE9D0FB07984685
:1005C000414672080A437B0866460EE0AB4201D101
:1005D000A2420CD8A41A9D41012024196D4100218A
:1005E000013E24184D41002E06D0AB42EED9013E0B
:1005F00024196D41002EF8D1009801995346001935
:100600006941002B23DB2B005246D3402A0064466D
:10061000E2401C0053461500002B2DDB26005746F8
:10062000BE40330026006746BE403200801A994122
:1006300000900191ACE7624620239B1A4A46DA40BB
:100640006146130042468A4017001F4380E7624616
:1006500020239B1A2A0066469A402300F340134346
:10066000D4E76246202300219B1A002200910192C8
:100670000122DA40019280E72023624626009B1A7D
:10068000DE402F00B0466646B74046463B00334347
:10069000C8E7C046F0B54F464646D6460C000903AB
:1006A000C0B5490A470F5E0039431F03DB0F9C4664
:1006B00065007B0A570F1F436D0DE40F760DA146B1
:1006C000C000B846D200AB1B64457BD0002B5FDD79
:1006D000002E00D0A4E03E00164300D112E15E1EC1
:1006E000002E00D09EE1871A4346B8428041012582
:1006F000C91A4042091A0B0200D431E149024E0ADC
:10070000002E00D16EE1300001F0E6FD0300083B51
:100710001F2B00DD61E120223900D21A9E40D1401A
:100720009F400E439D4200DD51E15D1B6B1C1F2B62
:1007300000DD7CE12021C91A3D0030008F40884057
:10074000DD40791E8F41310007222843D940002522
:1007500007433A40002A09D00F233B40042B05D021
:100760003B1DBB42BF417F42C9191F000B0200D491
:1007700026E26A1CC64B55056D0D9A4200D106E172
:10078000C44AFF080A40530752023B43120B8EE053
:10079000002B00D0B8E06B1C5B055B0D012B00DC6F
:1007A00030E1871A4346B842B641CB1A76429E1BC7
:1007B000330200D54CE13B003343A1D10022002499
:1007C000002570E0002B00DCE5E0002E00D183E086
:1007D000AF4EB54260D0802636043743B846382B3A
:1007E00000DC3EE1434613431F007A1E97413F1849
:1007F00087428041404209180B0200D4B0E0A44B6C
:1008000001359D4200D1C3E0A24A7B080A40012184
:100810000F401F435108D30707221F433A4099E76F
:100820009B4EB54238D0802636043743B846382B25
:1008300000DDDCE01F2B00DC30E11E004746203EDF
:10084000F740BC46202B04D04026F31A46469E4073
:100850003243170063467A1E97411F43CCE0002BBA
:1008600000D104E24346134300D159E14B07C008CD
:1008700018438023C9081B03194208D04546ED08D8
:100880001D4204D14346D008590708432900420FAE
:10089000C9007F4D1143C0004B07CA087C49C008FE
:1008A00003438D4268D012036D05120B6D0D0021BC
:1008B00012031800130B0A0D12051A43764B2D056F
:1008C00013402B435B00E4075B08234319001CBC67
:1008D00090469946A246F0BD3E00164312D05E1ED9
:1008E000002E00D000E187188742804141444042F9
:1008F000091801250B0233D5022585E7644633002C
:10090000414610001D00C7E7002D00D0DAE00C00C2
:100910000443F3D05C1C00D19FE15D4CA64200D1A2
:100920002FE1DB43382B00DD66E11F2B00DD83E187
:1009300020240500E41A0F00DD40D940A0404346C2
:10094000A7405B1A441EA04198462F433843171A0C
:10095000BA42924143465242991A64463500CAE669
:1009600007223A40002A00D0F6E64B07CA08484959
:10097000FF083B438D4296D11900114300D19EE1FF
:10098000802109030A431203120B414D8FE7150022
:10099000002200238BE7002B00D0C7E06B1C5F0513
:1009A0007F0D012F00DCF1E0394DAB4200D1B9E001
:1009B00085180A008542894142444942511807225C
:1009C000CF076D082F4349083A401D00C2E60722B1
:1009D0003049ED1A31403A40BCE63E0028388640A6
:1009E00000279FE6380001F077FC20308EE6434672
:1009F00013431F007A1E9741C71BB84280414042F3
:100A0000091A78E60E003B0006431343002D61D11E
:100A1000002E00D0F4E0002B00D11BE16446390029
:100A2000100039E71A4FBB427AD03300FFE630009E
:100A30001F3DE840202B03D04021CB1A9E40374376
:100A40007B1E9F41072207433A400021002589E78A
:100A5000171A4346BA42B641591A76428E1B64466B
:100A60004EE61F2B00DDADE020264746F61AB740C4
:100A7000B9461700B246DF404E463E433700564661
:100A8000B240561EB24117434246DA408918AEE6DC
:100A9000FF070000FFFF7FFFFFFF0F802026474674
:100AA000F61AB740B9461700B246DF404E463E43FD
:100AB00037005646B240561EB24117434246DA400E
:100AC000891A99E77F4CA6425BD0802424045B42BC
:100AD000214327E7002E0CD1002B00D1CBE0644648
:100AE00039001000774DD7E6764FBB4218D033005F
:100AF00075E6002B14D04B07C00818438023C908A3
:100B00001B03194207D0FC081C4204D17907D00806
:100B10000843E14621004C46420FC9001143C00082
:100B2000684DB9E61D0000220023C0E6002D5BD110
:100B30000D00054300D1E2E65D1C00D1B0E0614D3F
:100B4000AE421FD0DB43382B71DC1F2B00DD96E05B
:100B500020250F00ED1AAF40B9460700AA46DF4036
:100B60004D463D432F005546A840D940451EA8415B
:100B700088440743BF18974292415142414435008F
:100B80003AE6644635004146100085E60B00034313
:100B9000002D00D063E6002BF5D04346134300D16F
:100BA0007AE687188742804107224144404209186B
:100BB0003A400B0200D4D5E6434B01351940C9E554
:100BC000380069E61E004746203EF740BC46202B11
:100BD00004D04026F31A46469E403243170063462F
:100BE0007A1E97411F4302E6364DAE42CAD0802599
:100BF0002D045B422943A6E70843411E8841A6E62F
:100C0000002B00D148E6871A4346B842B641CB1ABA
:100C100076429E1B33024BD5171A4346BA42924185
:100C2000591A5242891A072264463A4092E5014312
:100C30000F00791E8F419DE71C000F00203CE7400C
:100C4000202B03D04024E31A99400843411E8841D9
:100C500038437CE60022002425E6171A4346BA42B0
:100C60009241591A5242891A6446350043E5414679
:100C70001000144D10E680220024120380E61D00AF
:100C80000F00203DEF40BC46202B03D04025EB1A3F
:100C90009940084307006346781E87411F4369E770
:100CA000871897429B4141445B42C9183500A3E530
:100CB0003B003343CED0072231003A4052E60023B6
:100CC0001A00F4E5FF070000FFFF7FFFF0B557466D
:100CD000DE464E464546E0B5834607000E03480013
:100CE00085B092461C00360B400DCD0F002800D178
:100CF0009DE0954B984239D08023F6001B041E439B
:100D0000924A7B0F33439946944603006344009311
:100D100000230026FF00029323031B0B9846630069
:100D2000E40F52465B0D019400D1B3E086498B423B
:100D300000D19EE04246D100802212040A4351466F
:100D4000490F11438B46814952468C4600996344B2
:100D5000CB1A0021D20000932B0063409A460F2E3D
:100D600000D905E17A4BB6009B599F465B46334359
:100D7000994600D0B8E0022308260027009002938D
:100D8000CAE7CB463A0002990195019B9A4602298F
:100D900027D0032900D180E2012944D06D49009B6E
:100DA0008C4663441C00002C38DD530700D013E24E
:100DB000D2085B46DB0109D55946674B19408B4683
:100DC0008021C9008C46009B63441C00634B9C42FD
:100DD00007DC5B4664055F075B0217431B0B620D74
:100DE00002E000230027584A00211B031C0B0B0DB7
:100DF0001B05234314055A4A380013401C4353462D
:100E00006400DB0764081C43210005B03CBC90462D
:100E10009946A246AB46F0BD0122524201231B1B5C
:100E2000382B00DCADE1002200230027DCE75B4625
:100E3000334399465ED0002E00D18AE1300001F0A4
:100E40004BFA03000B3B1C2B00DD7BE11D22D31A68
:100E50005A460100DA4008398E4013005F4633439A
:100E600099468F403F4B00261B1A009300230293A4
:100E700052E7414653460B433B499B468C46009BF9
:100E8000634400935B46002B3BD1022300221E43A8
:100E9000022161E7434613439B4637D04346002B6C
:100EA00000D162E1404601F017FA03000B3B1C2B16
:100EB00000DD53E102004146083A914088461D2179
:100EC000CB1A5146D9400B0041460B439B46534633
:100ED00093401A00009B25499C46604403008C46C1
:100EE00063440093002137E70323B14600900C26AA
:100EF000029311E700230093013304260027029395
:100F00000AE70323C3461E43032125E701331E439B
:100F10000022012120E700239A46802300271B039B
:100F2000094A61E7802349461B03194200D1E2E0E8
:100F30005946194200D0DEE00B431B0317001B0B80
:100F4000A246014A50E7C046FF07000001FCFFFF30
:100F5000087A0008FF030000FFFFFFFEFE07000005
:100F6000FFFF0F800DFCFFFF01F8FFFFF303000000
:100F7000D94500D9CBE000D1C6E03C004846002767
:100F8000009B013B00935B46160E1B021E4313029F
:100F9000984633041B0C9946310C0191FFF74CF92C
:100FA0004A4642430B04210C050019438A4207D9E3
:100FB0008919013D8E4203D88A4201D9851E8919BB
:100FC000881A0199FFF738F909048C464A4621042A
:100FD00064464243090C030021438A4204D989191B
:100FE000013B8E4200D8F1E02D041D43AB46434641
:100FF000891A4246280C12041D0C5B46140C220070
:101000001B041B0C5A4303946B43444302956843EF
:101010001B19150CEB189C4203D980246402A446CA
:1010200060441C0C15041B042D0C20185D19814212
:1010300077D373D00C1AA24A7D1BAF42BF419446AE
:10104000009B7F426344E01B1C00864200D1DBE032
:101050000199FFF7F1F84A4642430B04290C0700B7
:1010600019438A4207D98919013F8E4203D88A421F
:1010700001D9871E8919881A0199FFF7DDF809043B
:101080004A46894629044D464243090C0300294338
:101090008A4207D98919013B8E4203D88A4201D975
:1010A000831E89193F04891A3A00039F1A433800A6
:1010B00013041B0C584381460298150C6F4343439D
:1010C00045434846000C8446DB1963449F4203D9DC
:1010D000802040028446654448461F0C00041B04DF
:1010E000000C7D191818A94200D284E000D17FE0DD
:1010F00001231A4357E680234A461B0313431B036D
:101100001B0BAA466F4A6FE6BA4200D935E74B4639
:10111000DC0758087B081C43FF0734E70024AF4274
:1011200089D247444745A4415B466442A4196418E8
:10113000013BA6421ED2A0426DD800D1B6E0241ACF
:101140009B4678E703005A46283B9A400027914681
:1011500088E6584601F0C0F8203072E60300524697
:10116000283B9A4093460022B4E6504601F0B4F87A
:1011700020309AE6A642E2D1B845DCD9341A9B4623
:1011800059E71F2B65DC504C0099A4465C4661442E
:1011900008008C4011008240D940501E82410C430F
:1011A00014435A46DA401300620709D00F22224046
:1011B000042A05D02200141D9442894149425B183B
:1011C0001A0262D50122002300270DE68A4200D8C8
:1011D0000AE7831E891907E70F231340042B00D168
:1011E000E6E5171D9742924153429B44FA08E0E519
:1011F000002800D1D7E57118531EB14227D3A94268
:1012000015D358D01A0073E7002B00DC04E6012345
:1012100000229B44CDE502234744474589415B4278
:101220009C46494289190C19E344241A03E74346B2
:101230005F0047459B41B8465B429E19023A8919B7
:10124000A94200D054E7404500D051E7ABE51A0071
:10125000F6E71F215F4649420C1BE740202B07D0D1
:101260001A49009B8C46634418005B4683401A432E
:10127000501E82413A4307270023174009D00F210F
:10128000002311401400042995D122005F075B025E
:101290001B0BD20817430022A6E5802359461B03E7
:1012A0000B431B0317001B0B064A9DE5BD42B2D83A
:1012B0009B460024BFE68045B9D31A00C3E7C04669
:1012C000FF030000FF0700001E0400003E040000B2
:1012D000F0B54F464646D6468446C0B58046194EC0
:1012E00018030F034D00000B5C0082463F0B6D0D91
:1012F000C90F9146640DDB0F0120B5420AD0B442FC
:1013000003D0A54201D157450CD01CBC904699464C
:10131000A246F0BD66463E43F7D1AC42F5D15446F5
:101320001443F2D10120C845EFD1994207D0002DD6
:10133000EBD163461F433800471EB841E5E7002064
:10134000E3E7C046FF070000F0B54F464646D646E5
:101350004D00C0B50E03C90F8A462C491F035C001F
:101360008046360B6D0D91463F0B640DDB0F8D42B1
:101370001ED08C4216D0002D1ED130438446002C46
:1013800001D13A4323D06246002A1AD09A4529D087
:10139000514602200139084001381CBC904699464C
:1013A000A246F0BD39001143E5D002204042F4E7E7
:1013B0003043FAD1AC420FD0002C0FD13A43E7D0E2
:1013C0000CE00122013B934318000130E5E763463E
:1013D0000020002BE1D0DBE73A43E6D19A45D7D194
:1013E000A542D5DCA54205DBBE42D1D808D00020FD
:1013F000BE42D2D250460123013898430130CCE797
:10140000C845C5D80020C845F4D3C6E7FF0700008B
:10141000F0B54F464646D6464D00C0B50E03C90F3F
:101420008A462E491F035C008046360B6D0D91469F
:101430003F0B640DDB0F8D4218D08C4211D0002D74
:1014400018D130438446002C1ED13A431CD1634648
:101450000020002B30D051460220013908400138CD
:101460002AE039001143EAD0022025E03043FBD1C5
:10147000AC4226D0002C26D13A4324D1514602203A
:1014800001390840013817E06246002A0FD09A451A
:10149000E1D1A54205DBBE42DDD819D00020BE4215
:1014A0000AD25046012301389843013004E001225A
:1014B000013B9343180001301CBC90469946A2465C
:1014C000F0BD3A43D0D19A45C5D1A542C3DCE0E78F
:1014D000C845C0D80020C845E3D3EDE7FF070000AA
:1014E000F0B55746DE464E464546E0B58346060013
:1014F0000F03480087B092461D003F0B400DCC0FF4
:10150000002800D16FE0DE4B984238D08023FF00E6
:101510001B041F43730F3B430193DA4B002799468B
:1015200000239B46F60081442B0369001B0B5246A7
:101530009846490DED0F002900D185E0D04B994226
:1015400000D173E04346DA0080231B041343524664
:10155000CC48520F84461343524600206144D200C7
:1015600089442100694000918C46012149448A4602
:101570000F2F00D990E0C449BF00CF59BF465B464A
:101580003B43019300D06AE10223082700268146ED
:101590009B46C9E732005846019B614600910228EC
:1015A00000D175E0032800D1FEE1012800D02CE134
:1015B00000230027002600253F032A0D3F0BB348D8
:1015C00012053A4302401B051343009A5B00D10702
:1015D0005B080B433000190007B03CBC90469946AD
:1015E000A246AB46F0BD5B463B43019300D12FE1E1
:1015F000002F00D1A5E1380000F06EFE03000B3B88
:101600001C2B00DD96E11D22D31A5A460100DA4058
:101610005E4608398F4013008E403B4301939C4B3C
:1016200000271B1A994600239B467DE741465346F7
:101630000B4393498C46E144002B00D01AE102226F
:101640000220174300228CE7134300D10DE14346EB
:10165000002B00D181E1404600F03EFE02000B3A33
:101660001C2A00DD72E10100434608398B40984690
:101670001D239A1A5346D3401A0043461343524639
:101680008A404946081A824989468144002068E711
:101690007B4B002700268EE7140C1204120C11005D
:1016A000370C3604350C794328008C462E006043F5
:1016B0006044834656432100300C804658467943A7
:1016C00040440291844506D98846802149028C46CF
:1016D000E044414602913604010C360C00048B466E
:1016E00081191E0C1B041B0C0391190079438C46B5
:1016F000280075436544A8465843050C4544774384
:10170000A94203D9802149028C466744290C8C46A2
:1017100039000004000C2D042D186144AB440591E0
:101720005946049101990F043F0C080C39005143AC
:101730004243904602008C46090C8B4662437C4330
:1017400044445C44A04503D9802149028846424470
:10175000210C884661460904090C8C46390059431E
:10176000434370437E430F0CF6182404BE196444AF
:1017700042448C46B34203D980235B0298464044DE
:10178000029B61469846049B370443449B46AB4505
:10179000AD416B420D0405992D0C8C467F196744B1
:1017A000FD18A8465D462D19A542A4419346644202
:1017B000A446C344DC448F42BF4198459B419345B6
:1017C0009241A445A4415B427F421F43360C5242E2
:1017D0006442BF192243BF18624638184302D20D33
:1017E000039913436A020A43501E82416146ED0D7C
:1017F0002A434E023243D90100D4B3E001265008F7
:1018000032400243DE0732435B08224C5444002C32
:1018100062DD510709D00F201040042805D0101DAB
:101820009042924152429B180200D90104D5802473
:101830001948E400034054441848844200DD27E777
:101840005E075B02D2081F0B630516435B0DB2E611
:10185000002399460133042700269B4664E60323B0
:10186000019781460C279B465EE601220120174323
:10187000002276E6032303201F43434671E6C04659
:10188000FF07000001FCFFFF487A0008FFFF0F8000
:101890000DFCFFFFFF030000FFFFFFFEFE0700003F
:1018A0000023802700933F030026434B83E6019BE0
:1018B0003200A446584670E6AC466EE68027019991
:1018C0003F0339422DD03B422BD11F433F033F0BF7
:1018D00000951600384B6EE601252D1B382D00DDD6
:1018E00066E61F2D40DC35481C005044160082403F
:1018F0008440EE40501E824134431443EB40620763
:1019000009D00F222240042A05D02200141D94423F
:10191000804140421B181A023ED5012300270026B1
:1019200049E68027019B3F031F433F033F0B009481
:10193000214B40E603005A46283B9A40002601927C
:101940006DE6584600F0C8FC203057E603005246CA
:10195000283B9A401300002293E6504600F0BCFC5E
:1019600020307BE6CA4650E71F201E004042041B81
:10197000E640202D03D0124C5444A3401A43501E7D
:101980008241324307260027164009D00F2000234A
:10199000104014000428B9D122005E075B021F0B1F
:1019A000D2081643002306E680273F031F433F0368
:1019B0003F0B1600004BFEE5FF0700001E04000071
:1019C0003E040000F8B557464E464546DE460C003C
:1019D0000903E0B5490A460F5F0031431E03DB0FE0
:1019E000760A9B46530F3343C84E6500C000E40F90
:1019F000D2006D0DA24681467F0D9C469046B742AF
:101A000000D1B9E05B46012673409B46EE1BA3451F
:101A100000D183E0002E63DD002F00D0B1E06346EB
:101A2000134300D123E1731E002B00D0BAE1861AC4
:101A30006346B04280410125C91A4042091A0B028F
:101A400000D447E149024B0A98464346002B00D197
:101A500089E1404600F040FC0300083B1F2B00DDFD
:101A60007CE120223000D21A4146D0409940020049
:101A70009E400A439D4200DD6AE15D1B6B1C1F2BEB
:101A800000DD94E1202110003500C91A8E40DA40B3
:101A90008840DD40711E8E41110007222843002539
:101AA00006433240002A09D00F233340042B05D0CF
:101AB000331DB342B641764289191E000B0200D491
:101AC0003DE26A1C914B55056D0D9A4200D119E11A
:101AD0008F4AF6080A40570752023743120B9BE021
:101AE000002E00D0C5E06E1C7605760D012E00DCC0
:101AF00048E16746861ACB1BB042BF417F42B846D9
:101B00001F004346FF1A3B00B8461B0200D55FE1A9
:101B100037439AD100220024002579E0002E00DC12
:101B2000FAE0002F00D18DE0784B9D4267D08023F2
:101B300067461B041F43BC46382E00DC52E1634657
:101B400013435A1E93411E18864280414042091891
:101B50000B0200D4BEE06D4B01359D4200D1D2E0B6
:101B60006B4A73080A4001210E401E435108D307F7
:101B700007221E43324095E71E00164300D045E77A
:101B800040E7624B9D423AD0802367461B041F43C7
:101B9000BC46382E00DDEBE01F2E00DC3AE13300BE
:101BA0006746203BDF403B00202E05D04027BF1B6F
:101BB0006646BE40324390464646721E96413343C7
:101BC000DAE0002B00D114E26346134300D168E150
:101BD00080234E07C008C9081B030643194208D0DA
:101BE0006046C008184204D163460100D2085E076F
:101BF0001643F3009946C900720F444D11434B46FA
:101C0000DE08424B4F073743CA089D4200D16EE0C1
:101C100012036D05120B6D0D00211203130B0A0D3B
:101C200012051A433B4B2D0513402B435B00E40781
:101C30005B082343380019003CBC90469946A246F5
:101C4000AB46F8BD6346134311D0731E002B00D082
:101C500007E1861886428041614440420918012507
:101C60000B0237D502257BE73E00614691463500E1
:101C7000C5E75C46002D00D0E1E00B000343F3D044
:101C8000731C00D1ACE1214B9F4200D13AE1F343F8
:101C9000382B00DD6FE11F2B00DD8CE120250E00CD
:101CA000ED1AAE40B0460600AA46DE404546354332
:101CB0002E005546D940A8406346451EA8415B1AF0
:101CC0009C463043161AB242924163465242991AD8
:101CD0003D00B4E607223240002A00D0E4E60B4B78
:101CE000F6084F073743CA089D4200D090E73B00F3
:101CF000134300D1A6E180231B031A431203120BE6
:101D0000024D89E715000022002785E7FF07000044
:101D1000FFFF7FFFFFFF0F80002E00D0C7E06B1C8E
:101D20005E05760D012E00DCF0E0C84DAB4200D11F
:101D3000B9E085180A008542894162444942511838
:101D40000722CE076D082E43490832401D00A9E640
:101D5000BF49ED1A114007223240A3E6320028386D
:101D60008240002686E6300000F0B6FA203073E6A6
:101D7000634613435A1E9341C61AB0428041404203
:101D8000091A5CE60E00674606431743002D5ED134
:101D9000002E00D0F3E0002F00D11EE15C4661462A
:101DA00091462CE7A94FBE427BD01E00F1E6100001
:101DB0001F3DE840202B03D04021CB1A9A40164308
:101DC000731E9E410722064332400021002583E70F
:101DD000161A6346B2428041591A40420B1A98467D
:101DE0005C4632E61F2E00DDABE02027BB1B9A4687
:101DF00063465746BB40994613004F46F3401F4386
:101E00003B005746BA40571EBA4113436246F24060
:101E1000891898E62027BB1B9A4663465746BB4065
:101E2000994613004F46F3401F433B005746BA40C4
:101E3000571EBA4113436246F240891A9CE7834B0E
:101E40009F425FD080252D047342294320E7002E56
:101E50000CD1002F00D1D0E05C46614691467B4D0D
:101E6000CDE67A4FBE421CD01E0065E6002F18D08A
:101E7000C0084E0706438020C9080003014208D06D
:101E80006346DC08044204D12100DA46D2085E072A
:101E90001643F300994601245346C900720F1143BB
:101EA0001C406A4DABE61D0000220027B4E6002D61
:101EB00059D10B00034300D1D6E6731C00D1B2E028
:101EC000624B9F421ED0F343382B6FDC1F2B00DD8B
:101ED00097E020250E00ED1AAE40B0460600AA4657
:101EE000DE40454635432E005546A840D940451EA4
:101EF000A8418C440643B61896429241514261442F
:101F00003D0025E63D006146914678E60B0003431F
:101F1000002D00D055E6002BF5D06346134300D1C9
:101F20006DE68618864280416144404209180022CD
:101F30000B0200D4D0E6464B01351940B2E5B1465C
:101F40005DE633006746203BDF403B00202E05D096
:101F50004027BF1B6646BE40324390464646721E2F
:101F600096413343EFE5394B9F42CBD080252D047A
:101F700073422943A8E70843411E8841A2E6002F87
:101F800000D13CE66346861ACF1AB0429B415B42C1
:101F9000FB1A98461B024ED5161A6346B24292416E
:101FA000591A5242891A5C4600227BE501430E0011
:101FB000711E8E419FE71D000E00203DEE40B04691
:101FC000202B04D04025EB1A99400843814648460F
:101FD0004346411E8841184374E60022002417E658
:101FE000161A6346B2429241591A5242891A3D006A
:101FF00025E561469146154D01E680220024120335
:1020000079E61D000E00203DEE40B046202B04D0A6
:102010004025EB1A9940084381464E464346711EBF
:102020008E411E4367E7861896429B4161445B429E
:10203000C9183D008CE547463743CED007224146BC
:10204000324049E600273A00E6E5C046FF070000B7
:10205000FFFF7FFF70B50C4E0D031C0349005B00B2
:102060002D0B490D240B5B0DB14208D00649002011
:102070008B4203D114432000441EA04170BD054390
:102080000120002DFAD1F1E7FF07000030B5144D13
:102090000A034B00120B5B0DC90F0024AB4211DD8C
:1020A000104CA34210DC8024640322430E4CE41A3B
:1020B0001F2C0CDD0D48C31ADA4013005C420029C6
:1020C00000D11C00200030BD094BCC18FAE7094DA7
:1020D000E040AC4663449A4013000343EEE7C04639
:1020E000FE0300001D040000330400001304000080
:1020F000FFFFFF7FEDFBFFFF70B500282DD0C3175A
:10210000C5185D40C40F280000F0E6F8154B1B1AF7
:102110005B055B0D0A2815DD0B38854000222D0379
:102120002D0B002110002D030A0D2D0B12052A4343
:102130000D4D1B052A4013435B00E4075B08234356
:10214000190070BD02002900153291400A000B21D0
:10215000081AC5402D032D0BE3E7002400230025BA
:102160000022DEE71E040000FFFF0F8010B5041EF2
:1021700025D000F0B1F8144B1B1A5B055B0D0A2843
:1021800012DD0B38844000222403240B00211000B0
:1021900024030A0D240B120522430C4C1B0522407C
:1021A00013435B00590810BD020021001532914015
:1021B0000A000B21081AC4402403240BE6E700237D
:1021C00000240022E2E7C0461E040000FFFF0F804B
:1021D000F0B54C00640D0B03621C5B0A460F520500
:1021E000C90F1E43C500520D012A29DD374BE718E0
:1021F000FE2F1CDC002F3BDD8001431E984107228F
:10220000F3006D0F03432B431A40002A04D00F2222
:102210001A40042A00D004338022D2041A4024D069
:102220000137FAB2FF2F02D09B01580A01E0FF22CA
:1022300000204002D205400AC90710430843F0BD00
:102240003543002C04D1002D0AD100220020F0E7F4
:10225000002DECD08020C0033043FF22E9E70024AA
:1022600000235B02580AE2B2E3E7DB083C00F8E730
:102270003B001733F3DB80231B0433431E26F61B7E
:102280001F2E14DD02225242D71B1A00FA401700FB
:10229000202E04D00E4A94466444A3401D432B00D4
:1022A0005D1EAB4107223B431A400027ADE7094AB8
:1022B0002800A218954093406C1EA541F0400722CB
:1022C0002B4303431A4000279FE7C04680FCFFFFD3
:1022D000A2FCFFFF82FCFFFF1C2101231B0498428C
:1022E00001D3000C10391B0A984201D3000A0839A7
:1022F0001B09984201D30009043902A2105C40185E
:102300007047C04604030202010101010000000001
:102310000000000010B5002903D1FFF7DDFF2030D9
:1023200002E0081CFFF7D8FF10BDC046FA210A4B97
:1023300010B5890004001868FDF7F8FE00F076F883
:102340000123002805D100222100013800F038F8CF
:102350000023180010BDC046000000204021084A9C
:1023600010B5136800200B431360FFF7DFFF041E56
:1023700002D00124200010BD01F09CFBFAE7C0460A
:1023800000200240024A1368013313607047C046C0
:10239000FC010020014B18687047C046FC0100207A
:1023A00070B50400FFF7F6FF631C5A1E9341050049
:1023B000E418FFF7EFFF401BA042FAD370BDC04600
:1023C000FF22032330B51400C5B22B40DB009C4034
:1023D00089010A40E4439A4000280BDB0C4B80083B
:1023E0009C46C023800060449B00C1580C4022439F
:1023F000C25030BD0F2307492B408C46083B9B0839
:102400009B006344D9690C402243DA61F1E7C0467E
:1024100000E100E000ED00E01F2318401E3B834078
:10242000014A13607047C04600E100E00A4A431EBB
:10243000012093420ED8C021084A09485360036A1C
:1024400009061B021B0A0B43036200230020936052
:10245000073313607047C046FFFFFF0010E000E045
:1024600000ED00E0252370B5C25C022A03D0213BB9
:10247000C363012070BD0E240268456C1168A1433E
:102480001160012114688C4314601C222A400D0045
:102490009540046C00226560C1542423C254836BB0
:1024A000002B02D098470020E4E70020E2E7C04676
:1024B000F0B5DE4657464E464546E0B50B6883B05C
:1024C0009C46002B00D184E001239A46684B0022F1
:1024D000984663460191009354469440009D2540E0
:1024E00073D0019B10275B681900B9438946022904
:1024F00000D175E051008C4603216646B1400126AB
:102500007642B346D9444E46C943012E00D887E0EF
:10251000046867460C40A14603241C40BC404F465B
:102520003C4367460460C4680C4001998968B9401F
:102530002143C160802149050B4246D056460327FE
:102540004C4C1740616B314361634B4CBE00A44659
:102550000F27910889006144B740B446A0268C68D3
:10256000F605BC43B04215D0444EB04200D175E0F0
:10257000434EB1460226484509D0424EB04200D1F2
:1025800071E0414EB1460526484500D00626674613
:10259000BE4034438C604146EC430968DE035BD4A3
:1025A00021404646316071689E0353D4214046461F
:1025B0007160B168DE024BD421404646B160F168DB
:1025C0009B0243D421404346D960009B0132D34053
:1025D00082D103B03CBC90469946A246AB46F0BDC2
:1025E000D108890041180E6AB14607263700174006
:1025F000BE000F27B740BB46B4464F465E46B743C2
:10260000019EB94637696646B740BC464F466646A6
:1026100037430F6251008C4603216646B140C943DF
:102620008768019E0F40BB46F7686646B740B946CB
:102630005F464E4637438760466837005646A74395
:102640001C09344094403C43446061E72943BAE7A5
:102650002943B2E72943AAE72943A2E7564667463A
:10266000BE40344396E703266746BE40344391E7B5
:10267000000401400010024000000140000400502E
:1026800000080050000C0050001C0050002A01D12E
:10269000816270478161FCE7F0B5D6464F464646F9
:1026A000C0B5040082B0002800D145E10C25802689
:1026B000BA4B7602DA681540DA6803681640DA0722
:1026C00033D5082D00D12EE10C2D00D128E180203A
:1026D00061684002814200D1B4E1A022D20291425D
:1026E00000D188E2AD4FAE4B3A681A403A603B6881
:1026F000AC4A03400193019B3B6813403B600029B7
:1027000000D0A3E1FFF746FE80239B028146984656
:1027100006E0FFF73FFE4B46C01A642800D9D4E11B
:1027200042463B681342F4D123689A0700D5CFE0B4
:10273000DA062AD5002D00D105E1E369974E002B7A
:1027400000D1EEE1802332685B0013433360FFF772
:1027500021FE80278046BF0006E0FFF71BFE4346B0
:10276000C01A022800D9B0E133683B42F5D0736843
:102770008D4A1340626A134373607268236A1202BF
:102780001B06120A1343736023681A0719D563697D
:10279000824E002B00D1AFE10122336D134333652C
:1027A000FFF7F8FD02230700984605E0FFF7F2FD6A
:1027B000C01B022800D988E14246336D1A42F5D089
:1027C00023685A0742D580230020744A5B05916B29
:1027D0008246194204D1916B0B43936301239A46BD
:1027E0008027724E7F0033683B4200D15DE180223A
:1027F000A3685200934200D107E2002B00D139E1D7
:10280000A021C9008B4200D147E2644B68491A6D90
:102810000A401A651A6D67490A401A65FFF7BAFD42
:102820008026654B81465D4FB600984606E0FFF76F
:10283000B1FD4B46C01A404500D946E13B6D3342DD
:10284000F5D05346012B00D1CEE123689B0620D55D
:10285000A369524E002B00D179E10121B268022711
:102860000A43B260736B554A0B4373638023116A4A
:102870009B010B431362FFF78DFD804606E0FFF7D7
:1028800089FD4346C01A022800D91EE1B3681F42E1
:10289000F5D0A36A002B19D00C2D00D170E1022BCA
:1028A00000D1C5E13D4C464A236880251340236092
:1028B000FFF770FDAD04060005E0FFF76BFD801B20
:1028C000022800D901E123682B42F6D1002034E030
:1028D000E368042D00D17EE00C2D00D178E02F4E6E
:1028E000002B00D1F3E00921326804278A43134307
:1028F0003360FFF74FFD804606E0FFF74BFD434690
:10290000C01A022800D9E0E033681F42F5D072688F
:1029100023692C491B020A4013437360236807E7AD
:10292000002E00D1D3E61D4A1268920300D4FCE6C3
:102930006268002A00D0F8E6012002B01CBC904674
:102940009946A246F0BD154B1B689B0502D5E3696D
:10295000002BF1D0114A14485168636A01401943B1
:1029600051605068216A0002000A09060143516063
:10297000D16880225B0B013312029A4013000A06D1
:102980001149120F8A5C0020D340104A1360FFF7F0
:10299000CDFC0028D1D12368F7E6C04600100240E4
:1029A000FFFFFEFFFFFFFBFFFF1FFFFF0070004068
:1029B000FFFEFFFFFFFBFFFF881300000000014048
:1029C000FFFFFFFEFFE0FFFF187B00080000002074
:1029D000002E00D083E7C04A1268520701D5002BB1
:1029E000AAD0BD4A21695068BC4E0902304001435B
:1029F00009205160116881430B4313600C23D16897
:102A00000B40082B00D111E10C2B00D1D5E0042B99
:102A100000D1FFE08020536800021B045B0F0133EC
:102A20009840AD4BAE4ADB681B061B0FD35CD84009
:102A3000AC4B18600020FFF779FC002800D07CE741
:102A4000236875E6A44A13680B431360FFF7A2FCE2
:102A50008027A14B81469846BF0205E0FFF79AFC0C
:102A60004B46C01A642830D843461B683B42F5D019
:102A700023685AE6984E9C4A336D8027134033658D
:102A8000336D9A4ABF0013403365FFF783FC984BC0
:102A90008146984605E0FFF77DFC4B46C01A40454D
:102AA00013D8336D3B42F6D1CBE633683B433360FA
:102AB000FFF770FC804633683B4200D097E6FFF793
:102AC00069FC4346C01A6428F5D9032035E7012282
:102AD000336893433360FFF75DFC04230700984697
:102AE00004E0FFF757FCC01B0228EED842463368CB
:102AF0001A42F6D123681BE60122336D93433365F6
:102B0000FFF748FC02230700984604E0FFF742FC69
:102B1000C01B0228D9D84246336D1A42F6D1236829
:102B20004FE63368704A13403360FFF733FC80236D
:102B30009B000700984604E0FFF72CFCC01B02280E
:102B4000C3D8424633681342F6D123681DE60122FA
:102B5000B36868499343684AB360136A0B401362D1
:102B6000FFF718FC02230700984604E0FFF712FC69
:102B7000C01B0228A9D84246B3681A42F6D188E69B
:102B8000012B00D1D8E6544BE16ADA6880235B025E
:102B9000134001208B4200D0CFE6F023216B9B0332
:102BA00013408B4200D0C8E6C02000040240606B96
:102BB000101A421E9041C0B2BFE68B024F481B0F55
:102BC000C65C0902D368890F0131DB036FD4136837
:102BD000DB0676D573019B1B9801C01AC0008019D3
:102BE0000002FDF7A3FA1CE73B4A4549936B0B40F3
:102BF000936323682AE68023374ADB0211680B437C
:102C0000136013680343136020E7334A116D0B43CD
:102C1000136503E613680730184043425841394BA7
:102C200040421840384B9C466044FAE63748F8E684
:102C3000294D374A2B68802613402B60FFF7AAFBEB
:102C4000B604070005E0FFF7A5FBC01B022800D96A
:102C50003BE72B683342F6D1216BE36AEA680B430A
:102C60002C490A401343626B80241343EB6080239A
:102C70002A685B0413432B60FFF78CFB164D06009C
:102C8000A40405E0FFF786FB801B022800D91CE79F
:102C90002B682342F6D000204FE60F4B0139186D08
:102CA000FF3901431965196D0A431A65B6E57001CC
:102CB000801B8301181AC00080198002FDF736FAC4
:102CC000AFE673019B1B9801C01AC00080198002F7
:102CD000FDF72CFAA5E6C04600100240FFE0FFFF1A
:102CE000187B000800000020FFFEFFFFFFFBFFFF36
:102CF00088130000FFDFFFFF00000140307B000869
:102D0000FFFFFFEF001BB70000093D000024F400A7
:102D1000FFFFFFFEFFFF02FFF8B5CE464746040067
:102D200080B50D0000280DD001237E490A681A40A5
:102D3000AA420CD20A689A432A430A600A681340DE
:102D4000AB4204D001200CBC90469946F8BD2368E4
:102D50009A0706D5F0207449CA688243A0680243E6
:102D6000CA60DB072DD5704A63681268022B66D0F3
:102D7000032B00D188E0012B00D1B5E09205E1D50D
:102D80000321694EF2688A431343F360FFF702FBA5
:102D900063680700022B00D196E0032B00D1A7E067
:102DA000012B7FD00C239846604B994605E0FFF736
:102DB000F1FAC01B484500D984E04246F3681A4244
:102DC000F5D10121574A13680B40AB4205D913686E
:102DD0008B43136013681942B4D123685A0706D590
:102DE00051495348CA680240E0680243CA601B0761
:102DF00007D54D492369CA684E48DB00024013439A
:102E0000CB600C23484AD1680B40082B1AD00C2BFE
:102E100023D0042B18D08020536800021B045B0FC2
:102E200001339840404B444ADB681B061B0FD35CC0
:102E3000D840424B18600020FFF778FA83E79203EE
:102E40009ED47FE73E48EDE710683E4BC006C017B2
:102E500018403B4B9C466044E4E78B023A481B0F0A
:102E6000C45C0902D368890F0131DB0310D41368F5
:102E7000DB064DD563011B1B9801C01AC000001969
:102E80000002FDF753F9CDE7920100D578E759E745
:102E90006001001B8301181AC00000198002FDF7B1
:102EA00045F9BFE70B339846204B994604E0FFF7FE
:102EB00071FAC01B484505D84246F3681340042BFD
:102EC000F5D17EE703203EE70A339846174B994633
:102ED00004E0FFF75FFAC01B4845F3D84246F368A9
:102EE0001340082BF5D16CE7520700D548E729E7D6
:102EF000093398460D4B994604E0FFF74BFAC01B87
:102F00004845DFD84246F36813400C2BF5D158E70B
:102F100063011B1B9801C01AC00000198002FDF755
:102F200005F97FE7002002400010024088130000EE
:102F3000FFF8FFFFFFC7FFFF187B0008000000201D
:102F40000024F40000E548FF307B00080C23244AED
:102F500010B5D1680B40082B2BD00C2B12D0042BB2
:102F600007D08020536800021B045B0F0133984098
:102F700010BD10681B4BC006C01718401A4B9C466A
:102F80006044F5E78B0219481B0FC45C0902D36843
:102F9000890F0131DB030ED41368DB0615D56301FD
:102FA0001B1B9801C01AC00000190002FDF7BEF8F3
:102FB000DEE70D48DCE76001001B8301181AC00042
:102FC00000198002FDF7B2F8D2E763011B1B9801DC
:102FD000C01AC00000198002FDF7A8F8C8E7C04673
:102FE0000010024000E548FF0024F400307B000898
:102FF000044B054ADB685B055B0FD35C034A106832
:10300000D840704700100240287B000800000020D4
:10301000044B054ADB689B045B0FD35C034A1068D2
:10302000D840704700100240287B000800000020B4
:10303000F8B5CE464746036880B504009A062ED5FB
:1030400080230020654A5B05916B8046194204D1BC
:10305000916B0B439363012398468026604D760065
:103060002B68334256D06568C020C0212F002A004B
:103070005A4E80033368890207400A4003409F424A
:1030800068D08A425CD0336D194000D0A1E053492A
:103090000B6D1A4343460A65012B4BD02368DA07B0
:1030A00006D503204D49CA6C8243A0680243CA6416
:1030B0009A0706D50C204949CA6C8243E06802434E
:1030C000CA645A0706D545494648CA6C0240206979
:1030D0000243CA641A0706D540494348CA6C0240F5
:1030E00060690243CA645A0606D53C493F48CA6C27
:1030F0000240E0690243CA6400201B0606D5374A35
:103100003B49D36C0B40A1690B43D3640CBC904684
:103110009946F8BD2B6833432B60FFF73BF9070056
:1031200004E0FFF737F9C01B642850D82B683342FE
:10313000F7D098E78B6B2F4A13408B632368AEE779
:10314000336801209B03E1D4336D134036D09342A2
:1031500005D130E0336D194028D0914226D0236844
:103160009B0623D580211D4E0903306D376D224B00
:1031700039433165316D214F034039403165336545
:10318000C30513D5FFF706F980251D4B0700AD00D9
:10319000994604E0FFF7FEF8C01B484517D8336D89
:1031A0002B42F7D0C022656892022A40C0239B02BE
:1031B0009A4200D06BE7C027BF032F40074A11494E
:1031C00013680B401F431760C02292025FE7032081
:1031D0009CE7914200D15AE7C1E7C0460010024087
:1031E00000700040FFF3FFFFFFCFFFFFFFFFFFFB7B
:1031F000FFFFF3FFFFFFFFEFFFFFFCFFFFFFF7FF06
:1032000088130000FFFFCFFFF0B54F464646D64675
:10321000C0B51E00436F05000F0014000220202BD4
:103220004AD100294DD00138002A45D08023AA6810
:103230005B019A4247D07023EA5C012A00D17BE00F
:103240000122EA540023EB6721336B67FFF7A2F8F2
:1032500050230022EC520233EC5280239246AA689B
:1032600081465B019A4269D052235221EB5A2A6867
:1032700080248846002B12D0731C2AD1D3691C42AB
:10328000FCD0002F42D03B78013793624346414641
:10329000EB5A013B9BB26B526B5A002BECD1402492
:1032A000731C3CD14021D3691942FCD02023002259
:1032B00000206B675033EA541CBC90469946A246E6
:1032C000F0BD0120F8E72B69002BB4D10142B2D048
:1032D000F2E7D3691C42D4D1FFF75CF84B462A6869
:1032E000C01A864201D3002EC6D1136817490320A5
:1032F0000B4013609368A331FF318B43936020230D
:1033000000226B67AB675033EA54D5E753461B88FE
:10331000DB05DB0D936202239C46E244B6E7D369EA
:103320001C42C3D1FFF736F84B462A68C01A8642C2
:10333000DBD3002EB4D1D8E70220BDE72B69002BE8
:1033400000D091E7BA4600278EE7C0465FFEFFFF38
:103350007047C0467047C046036870B5DA6904001C
:1033600019689D68100753D0012028405BD00125C3
:10337000154205D0CE0503D51D62E66F3543E567DE
:103380000225154200D176E0002807D004261D62F0
:10339000E56F3543E567164200D072E0150705D5A5
:1033A0008D0600D574E0002800D071E0E06F0028A1
:1033B0002DD02020104202D0084200D072E0E16FF0
:1033C0009A68520603D408250D4000D172E01A68AD
:1033D0003B490A401A609A682331FF318A439A6058
:1033E0002022A267002222669A683F31114255D0FE
:1033F0009A68E06E8A439A6000284FD0314B83630D
:10340000FFF730F8002802D0E06E836B984770BD5C
:10341000202010420BD0084209D0236E002BF6D09A
:1034200020009847F3E79026760031429FD1802014
:103430004003024208D1802010420CD008420AD03A
:10344000636E002BECD1E2E76D02F4D51862200028
:1034500000F054FADBE740201042D8D00842D6D022
:103460001A6882431A602023636700232000636682
:10347000FFF76EFFCBE7550700D48FE7002800D198
:103480008CE7042502261D62E56F3543E56785E775
:1034900008251D62E06F2843E06787E72000FFF7FB
:1034A00059FFB4E7226E002A00D188E72000904738
:1034B000236884E72000FFF74DFFE567A7E7C046D4
:1034C000DFFEFFFFC934000800235A2210B5806ACE
:1034D0008352083A8352FFF73DFF10BD436A30B56F
:1034E000DA0706D50168284C4A682240846A2243DC
:1034F0004A609A0706D50168244C4A682240C46A8B
:1035000022434A605A0706D50168214C4A68224086
:10351000046B22434A601A0706D501681D4C4A68AD
:103520002240446B22434A60DA0606D501681A4CF1
:103530008A682240846B22438A609A0606D5016815
:10354000164C8A682240C46B22438A605A060AD508
:103550000168134D4A68046C2A4022434A60802265
:103560005203944209D01B0606D502680D495368E0
:103570000B40816C0B43536030BD4A680A4C2240BB
:10358000446C22434A60EEE7FFFFFDFFFFFFFEFFB2
:10359000FFFFFBFFFF7FFFFFFFEFFFFFFFDFFFFFEF
:1035A000FFFFEFFFFFFFF7FFFFFF9FFFF0B5C646EE
:1035B000040000B5002861D0436F002B39D02423CC
:1035C00001216367236825691A688A431A60A26823
:1035D00018682A436569E1692A43B24D0A432840C5
:1035E00002431A605A68B0480240E0680243AF489C
:1035F0005A60A269834221D0256A98682A43AC4D5B
:10360000284002439A60AB4A934239D0AA4A934277
:103610002DD1AA4BDA6C0C231340A94AD35C80222B
:103620001202914236D0082B21D8A64A9B00D358CB
:103630009F467022835400F01DFBC0E799689C48A8
:1036400001400A43C0219A6080229C480901C36C52
:10365000D2000B40934200D1CEE000D8A4E08022FB
:103660001201934200D10FE18B4200D1C7E0002349
:1036700001202366636604BC9046F0BD0120FAE792
:103680008E4BDA6C032313408F4AD35C80221202E4
:103690009142C8D1082BEAD88C4A9B00D3589F4648
:1036A000FFF7B6FC63685B0818186168FCF73EFD1D
:1036B0000004000C0300864A103B9342D7D82368CD
:1036C000D860002323666366636A002B5AD123689F
:1036D00080495A680A402A215A609A688A439A6047
:1036E0001A6829390A431A600023E367FEF752FE7D
:1036F000236806001A68120727D41A68520745D4AF
:10370000202300226367A3675033E2540020B2E70E
:10371000FFF76EFC63685B081818C6E76368580813
:1037200080231B029C466044BFE7FFF70FFC6368E1
:103730005B081818B9E7614B61681B684808DB062D
:1037400060D5654B9C466044B0E7644A802790464C
:10375000BF03DD693D40D0D1FEF71CFE2368801B0E
:103760004045F6D91A685E4903200A401A609A68F3
:10377000A331FF318A439A6020236367A3675033E4
:10378000E55478E72000FFF7A9FEA0E7534A802719
:103790009046FF03DD693D40B2D1FEF7FBFD236893
:1037A000801B4045F6D9DDE7002B00D05FE7FFF72F
:1037B0001FFC002871D063685A00D218824200D9D9
:1037C00055E71A03904200D951E70027020E010283
:1037D0005E0889197A41080011001A000023FCF7DD
:1037E00059FE404BC218404B9A4200D93FE723682C
:1037F000D8602766676667E7FFF7A8FBD9E78020F0
:103800000002D8E7394B9C4660444FE7FFF700FCC5
:10381000636840005B08C0186168FCF787FC00041F
:10382000000C03002A4A103B934200D91FE70F23E4
:1038300002009A4313000007400F18430023226838
:10384000D060236663663FE7FFF7D2FBE0E7FFF750
:103850007DFBDDE7194B61681B684808DB061FD557
:10386000234B9C466044FCF761FC0004000CD8E745
:1038700063686168580880235B029C466044FCF7DB
:1038800055FC0004000CCCE700681A4BC006C017BA
:103890001840164B9C4660448DE72066606613E72F
:1038A000154BDEE7F369FFEFFFCFFFFF0048004055
:1038B000FFF4FFFF003801400044004000100240C8
:1038C000D47A0008887A0008D07A0008AC7A000818
:1038D000EFFF0000FFB7FFFF00093D00FFFFFF0102
:1038E0005FFEFFFF00FDFFFFFFFC0F000024F40060
:1038F00000127A0000E548FF0048E8017047C04622
:10390000F0B5C646042600B58AB01422002105A8E9
:1039100000F0AEFA284B0125DA6A284F3243DA620A
:10392000DA6A380032400192019A8022D96A002472
:103930001143D962D96A0A400292029ADA6A2A438A
:10394000DA62DA6A2A400392039A0222D96A1143A0
:10395000D962DB6A04211A4004920022049BFEF71C
:1039600095FEE0231B0205930323984605A91448FE
:1039700006930794FEF79CFD124BA0200593434647
:1039800005A9C00506930794FEF792FD0E4B05A905
:1039900005934346380006930794FEF789FD05A971
:1039A00038000596069507950894FEF781FD0AB044
:1039B00004BC9046F0BDC046001002400004005018
:1039C00000080050F3F90000FBF3000010B59CB0B4
:1039D0002022002110A800F04BFA1422002101A897
:1039E00000F046FA2022002106A800F041FA17490B
:1039F000174A0B680EA81A4080231B0113430B6063
:103A000001230E9380235B020F9319938023DB0223
:103A10001A9380230222DB0318921B93FEF73CFECD
:103A20000F230024019301210C3B01A8029303946E
:103A300004940594FFF770F9072306A806930894E9
:103A400009940A94FFF7F4FA1CB010BD007000400E
:103A5000FFE7FFFF10B5FEF781FCFFF7B7FFFFF7A9
:103A60004FFF00F0B3F800F0CDF800F0E7F803499D
:103A7000034800F099F900F007F8FEE7E47A00083F
:103A8000000300207047C04610B5094C00220421F5
:103A90002000FEF7FBFDFA20FEF782FC0122042144
:103AA0002000FEF7F3FDFA20FEF77AFC10BDC046B9
:103AB000000400500121054B5A6B0A435A638022CF
:103AC000996B52050A439A637047C0460010024042
:103AD0007047C046FEE7C0467047C0467047C046C4
:103AE00010B5FEF74FFC10BD10B50248FFF734FCCF
:103AF00010BDC0468002002010B50248FFF72CFC24
:103B000010BDC0460003002010B5084C2000FFF790
:103B100023FC2368DB699B0606D5054B0548596ADB
:103B2000C905C90D00F034F910BDC04600020020DF
:103B300000480040800200200B4A10B51368002B9B
:103B400006D069461818884208D81060180010BDC1
:103B50006946064B181813608842F6D900F05EF9E2
:103B60000C2303600D3BF1E7F001002088030020E7
:103B70008022104B520019680A431A60DA680E4915
:103B80000A40DA601A680D490A4001211A609A68F1
:103B90008A439A601A680A490A401A60DA68094931
:103BA0000A40DA6000221A618022074B12059A60EF
:103BB0007047C046001002400C40FF88F6FFF6FE3A
:103BC000FFFFFBFFFFFF02FF00ED00E00B480C4B87
:103BD00010B5036096239B0143600C2200234261D1
:103BE0008360C3600361836103624362FFF7DEFCAD
:103BF000002801D0FFF746FF10BDC046000200209C
:103C0000004800400B480C4B10B50360E1235B02F9
:103C100043600C22002342618360C36003618361BF
:103C2000C36103624362FFF7C1FC002801D0FFF7C4
:103C300029FF10BD80020020003801400B480C4BCA
:103C400010B5036096239B0143600C220023426160
:103C50008360C36003618361C36103624362FFF7F2
:103C6000A5FC002801D0FFF70DFF10BD00030020C8
:103C70000044004010B5040088B01422002103A8BD
:103C800000F0F6F823683D4A934207D03C4A93423D
:103C90004ED03C4A934229D008B010BD80223A4B06
:103CA000D202996B39480A439A630222D96A1143B6
:103CB000D962DB6A03A913400093009BC0231B0158
:103CC000039303230693013304920793FEF7F0FB5B
:103CD0001D2000220021FEF773FB1D20FEF79CFB38
:103CE0002021226813680B431360D5E78022264BFE
:103CF0009202996BA0200A439A630122D96AC005F7
:103D00001143D962DB6A03A91A400292029B0C2379
:103D100003930A3B04930133069301330793FEF7A1
:103D2000C7FB1C2000220021FEF74AFB1C20D5E720
:103D30008022154BD201596BA0200A435A630122FD
:103D4000D96AC0051143D962DB6A03A91A400192FE
:103D5000019BC023DB0003930223049301330693EA
:103D600001330793FEF7A4FB002200211B20FEF77E
:103D700027FB1B20FEF750FB8EE7C04600480040A3
:103D80000038014000440040001002400004005090
:103D900000B583B06A460B00911D0B80012264239D
:103DA000FFF732FA03B000BD70B50B780500002BA9
:103DB00009D04C1C642301222800FFF725FA237840
:103DC0002100002BF5D170BD0D488546002103E090
:103DD0000C4B5B58435004310B480C4B42189A4231
:103DE000F6D30B4A02E0002313600432094B9A42D7
:103DF000F9D3FFF7BDFE00F017F8FFF72BFEFEE743
:103E000000200020007E000800000020D4010020D7
:103E1000D401002084030020FEE70000014B186855
:103E20007047C0460400002070B500260C4D0D4CB4
:103E3000641BA410A64209D1002603F0D7FD0A4D49
:103E40000A4C641BA410A64205D170BDB300EB5808
:103E500098470136EEE7B300EB5898470136F2E792
:103E6000F87D0008F87D0008F87D0008FC7D00085A
:103E700003001218934200D1704719700133F9E71B
:103E8000F0B58BB014001D1E129953DA802424065D
:103E90001B191D0014002D230B702023149E0322D8
:103EA0009E43462E07D03300453B59424B41109963
:103EB000013ACB18109309AB049308AB0393139BFF
:103EC00000920293109B220001932B0001F0BEFD93
:103ED0000700472E02D1119BDB0724D5109BFB184E
:103EE0000793462E14D13B78302B0CD100220023AF
:103EF00020002900FCF7A0FA002804D10123109A21
:103F00009B1A139A1360139B079A1B68D318079385
:103F10000022002320002900FCF78EFA302200281E
:103F20000DD0079B09933800099B159ADB1B136082
:103F30000BB0F0BD0023AFE7591C09911A70099B23
:103F400007998B42F8D3EEE7F0B5831C85B0019357
:103F500006000C0002702B23002901DA2D234C42AD
:103F60007370092C22DD02ABDD1D20000A21FCF755
:103F70004DFA6F1E3031397020000A21FCF760F9CC
:103F8000040009280BDC023D3034019B2C7002AA8E
:103F900007321800AA4204D8801B05B0F0BD3D00CE
:103FA000E3E72A7801351A700133F0E73023E4188B
:103FB000B370301DF470EFE7F0B595B00C000A92C5
:103FC0000B931A9D099002F057FE036818000C939A
:103FD000FCF79AF80023129323680E900D930D9925
:103FE000277E2B680722C90545D59B1893431A00E5
:103FF00008322A601A685B68A264E3640122E56CF7
:10400000A66C6B005B080F935242AC4B30000F99CB
:10401000FEF720F8002830D10122A84B5242300090
:104020000F99FCF719FA002827D10022002330004D
:104030002900FCF707FA002803D023002D22433380
:104040001A709F4D472F00D89E4D032300260D9ACE
:10405000236101339A4322600B9B13AA0093210032
:104060000A9B099800F0F4F9431C00D093E001206A
:10407000404215B0F0BD0733B8E732002B003000E6
:104080002900FDF7E7FF002804D08F4D472FDCD82B
:104090008E4DDAE780230D996268DB000B43511CDB
:1040A00043D10732626012AA0021059211AA03923D
:1040B000232223600691019308A963685218029293
:1040C000009332002B0004970998FFF7D9FE2023B4
:1040D0003A0005009A43472A07D1119BDA1C02DBFC
:1040E0006268934245DD023FFFB21199652F25D8E2
:1040F000200001393A0050301191FFF725FF129A44
:10410000060013182361012A02DC2268D20701D5B8
:1041100001332361232308AA9B181B78002B9BD013
:1041200023002D2243331A7096E7672F00D176E1E2
:10413000472FB8D1002AB6D10122B3E7662F19D193
:10414000636800290CDD2161002B02D12268D207AF
:1041500002D501335B182361119B0026A365D9E7C3
:10416000002B03D101222168114200D09A1C226148
:10417000F2E76727119B129A934205DB22682361BD
:10418000D207E9D50133E6E70121002B01DC49180C
:10419000C91A5218EBE72268530508D423692A008C
:1041A0000A9909980B9DA847431C29D15FE7652F01
:1041B00000D8E0E0A06CE16C00220023FCF73CF9A1
:1041C000002834D00123424A0A9909980B9DA84738
:1041D000431C00D14BE7119B129A934202DB2368E8
:1041E000DB070DD50B9D0E9B0C9A0A990998A847E1
:1041F0000025431C00D13AE7129B013BAB420ADC8D
:1042000023689B0700D508E1139BE068984200DB18
:104210002FE718002DE7220001231A320A99099886
:104220000B9EB047431C00D121E70135E4E7119B09
:10423000002B2DDC0123264A0A9909980B9EB047D2
:10424000431C00D113E7119B002B05D1129B002BBF
:1042500002D12368DB07D3D50B9E0E9B0C9A0A99DB
:104260000998B0470026431C00D100E7119B5B4230
:10427000B34201DC129B92E7220001231A320A9911
:1042800009980B9FB847431C00D1F0E60136EDE7D3
:10429000A36D129F9F4200DD1F00002F08DD3B0031
:1042A0002A000A9909980B9EB047431C00D1DEE60C
:1042B00000230D93FB43DB170F9318E0FFFFEF7F05
:1042C0003D7B0008397B0008457B0008417B0008E6
:1042D000497B0008220001231A320A9909980B9E93
:1042E000B047431C00D1C2E60D9B01330D930F9BD9
:1042F000A66D0D9A3B40F31A9342EBDC119B129A88
:10430000AD19934210DB2368DB070DD4129F119B7C
:10431000BE1BFF1AB74200DD3700002F0DDCFE4345
:10432000F31700250C931CE00E9B0C9A0A99099830
:104330000B9FB847431CE9D199E63B002A000A9934
:1043400009980B9DA847431CE9D190E62200012360
:104350001A320A9909980B9EB047431C00D186E691
:104360000135119A129B0C999B1A3A000A409B1A2C
:10437000AB42EBDC44E7129B012B02DC01231A4227
:1043800032D001232A000A9909980B9FB847431C91
:1043900000D16CE60E9B0C9A0A9909980B9F013587
:1043A000B847431C00D162E6A06CE16C129B00226E
:1043B0005F1E0023FCF740F83B00002814D00025C6
:1043C0000AE0220001231A320A9909980B9FB84784
:1043D000431C00D14BE60135129B013BAB42F0DCA4
:1043E000220033005032DBE62A000A9909980B9D1F
:1043F000A847431CF4D13AE62200012319320A9956
:1044000009980B9EB047431C00D130E60135E368A4
:10441000139A9B1AAB42EFDCF6E60025F7E7002A79
:1044200000D189E60021069112A9059111A90391F5
:10443000232108A809182360019300922B000497F8
:10444000029132000998FFF71BFD050045E6C046C2
:10445000F7B5150001938A680B6900900C00934230
:1044600000DA130022002B6043321278002A01D0B8
:1044700001332B6023689B0602D52B6802332B6027
:10448000062723681F4027D0230043331B785A1E7A
:1044900093412268920630D4220001994332009859
:1044A000089EB047431C25D0062320682A68E1688F
:1044B00003400025042B03D18D1AEB43DB171D406D
:1044C000A3682269934201DD9B1AED180027BD42C3
:1044D00020D1002010E00137E3682A689B1ABB4214
:1044E000D2DD22000123193201990098089EB047BD
:1044F000431CF0D101204042FEBD3020E118433181
:10450000087021005A1C45310978A2184332023341
:104510001170C1E7220001231A3201990098089E08
:10452000B047431CE6D00137D1E70000F0B589B0B1
:1045300004920A0043320593039002920A7E0C0013
:104540000E9B6E2A00D186E01FD8632A33D008D88C
:10455000002A00D18CE0582A4DD0250042352A701F
:1045600030E0642A01D0692AF7D1196825680A1D4C
:10457000280629D508681A60002803DA2D23029A34
:10458000404213706B4E0A274FE0732A74D008D84C
:104590006F2A1FD0702AE0D1202209680A432260C6
:1045A00003E0752A16D0782AD7D122007821453227
:1045B0001170614E22E025001A684235111D196004
:1045C00013682B70012365E008681A606906D3D56B
:1045D00000B2D1E719682568081D186008682E0622
:1045E00005D5544E08276F2A1BD00A2719E06D06FF
:1045F000F7D580B2F5E745314E4E0A70186822684B
:10460000011D00681960150621D5D30702D52023A6
:104610001A4322601027002803D1202322689A43DE
:1046200022602300002243331A706368A360002BCA
:1046300058DB0422216891432160002854D1029D57
:10464000002B5AD02500337842352B7055E05506A3
:10465000DBD580B2D9E71A680D68101D496918606A
:1046600013682E0601D5196002E06D06FBD519808E
:104670000023029D23614FE01A68111D196015681F
:1046800000216268280002F01FFB002801D0401BB7
:104690006060636823610023029A13703CE0236921
:1046A0002A0004990398059DA847431C3ED023681F
:1046B0009B0715D4079BE068984239DA180037E069
:1046C00022000123193204990398059EB047431C28
:1046D0002CD00135E368079A9B1AAB42F0DCE9E77E
:1046E0000025F7E70028ADD0029D3900FBF7A4FDB7
:1046F000735C013D2B700028F7D1082F09D1236886
:10470000DB0706D563682269934202DC3023013D52
:104710002B70029B5B1B2361059B07AA0093210062
:10472000049B0398FFF794FE431CB8D1012040423C
:1047300009B0F0BD4B7B00085C7B0008F0B58BB086
:10474000029000920020AE2205938B680E00591E45
:1047500052000490914205D95E3BFF3B04935E23D7
:10476000FF33B360F0233268DB0013433360330060
:1047700000271C331D003C000393089707970197FF
:104780000697B268002A13D0009B1B6809931B7818
:10479000492B00D17CE054D8392B47D8312B00D39A
:1047A00094E02D2B00D19CE017D82B2B00D198E062
:1047B000019B002B03D032689B4B13403360013CBC
:1047C000012C00D9EEE0BE246400039B9D4200D979
:1047D000DEE0012738000BB0F0BD2E2B00D1A2E0A7
:1047E000302BE5D13168C80570D580239943019BF2
:1047F000316001330193049B002B03D0013B013254
:104800000493B260B368009A013BB360336901332B
:104810003361009B5B680993013B5360002B00DC14
:10482000ACE01368099301331360AAE7452B00D16C
:1048300083E0462B6DD0412BBAD1012CB8D1022494
:104840004CE0652B79D01BD8542B67D013D84E2B56
:10485000AED1002C4CD1019A002A4BD1E021E020AE
:104860003268C9001140C000814243D16F49013410
:104870000A40326032E0592B23D0612BDDD097E71C
:104880006E2BE6D018D8662B43D0692B00D08FE76B
:10489000002F37D1019A002A00D08CE7E021E020D8
:1048A0003268C9001140C000814200D087E75F49EB
:1048B00001370A40326011E0742B2FD0792B00D0E1
:1048C00076E7072F00D073E7082707E0E219002AF0
:1048D00000D06DE7564A31680A4032602B700135CE
:1048E00090E7802132680A4200D161E78A43F4E709
:1048F000022C41D0012F02D0042F00D058E70137FD
:10490000FFB2EBE70221FA1E8A43D2B2002AF6D0A8
:104910004EE7022F00D04BE70327DFE7062F00D03A
:1049200046E70727DAE73268910500D440E74149B6
:104930000A403260019A0692D0E7A02180203268B6
:10494000C9001140C000814206D0024200D12FE7C9
:104950000199002900D132E7910504D40199069804
:104960000895091A079131490A40C02149000A43B4
:10497000326000220192B1E70324AFE7C0235B005D
:10498000F358009902989847002800D1F9E60FE7FC
:10499000013D33592978009A029898473369013BC1
:1049A000336112E77B1E062B26D8022F39D8BE248E
:1049B0006400039B9D4200D80BE7013D33592978E1
:1049C000009A029898473369013B3361F1E7049BF1
:1049D000009A013B04931978BE235B00F3580298B8
:1049E000099398473369013B3361013CE4B2022CDF
:1049F000EDD1033FFFB2ED1B3368DA0537D55B0518
:104A00001AD5BE246400039B9D4200D8E1E6013D17
:104A100033592978009A029898473369013B3361EA
:104A2000F1E73C000495E0E7FFFEFFFF7FF8FFFFA2
:104A30007FFEFFFF7FFDFFFF33696C1E2178013B86
:104A4000336165290CD045290AD0BE235B00F35899
:104A5000009A029898473369AC1E013B2178336174
:104A6000BE235B00F358009A029898472500102750
:104A700033681F405BD1C0232F703268DB001340C6
:104A80008022D20093421BD1069A019B9B1A5A4264
:104A9000002B22D100220399029800F0B1FE059B61
:104AA000040030680D001B68820723D51A1D059984
:104AB0000A601B681C605D60F3680133F36089E67F
:104AC000079B002BE6D0089B3A00591C02980A234A
:104AD00000F026FF079B089DC21A33007033FF3396
:104AE0009D4202D335006F35FF351249280000F092
:104AF00027F8CFE7042108401A1D01900028D6D1DD
:104B0000059920000A601B682200009329002B00F1
:104B1000FDF7A0FA002805D0019800F00DF8009BE1
:104B20001860C9E720002900FDF752FBF7E70027CE
:104B300050E6C0466D7B0008004870470000C07F0B
:104B40000EB400B50B499CB01DAB029006900791C6
:104B500004910948094904CB0591006802A9019311
:104B600002F0D4FD0023029A13701CB008BC03B0FD
:104B70001847C046FFFFFF7F040000200802FFFF28
:104B800070B516000D0002F083FB002E0DD06B23D4
:104B90006A00520D9B1A002B07DD0024034A1B05F7
:104BA0009D182B002200FCF79BFC70BD0000F03F1D
:104BB000F0B5A7B0079300230490079822930691BD
:104BC0001D9202F057F805000068FBF79DFA0026D9
:104BD0000027069B05902193219B1A780D2A39D82E
:104BE000092A3DD2002A44D0002313930022219C9D
:104BF0000C922378302B00D07EE06378582B02D0C3
:104C0000782B00D06EE0079B964A0293139B21A954
:104C1000019322AB0093049823AB01F040FD0725DC
:104C20000590054005D0062D2FD100230134219495
:104C300013931D9B002B02D01D9B219A1A60139B7E
:104C4000002B1DD0802332001B06FB18100019001A
:104C500027B0F0BD2B2A16D02D2A03D0202AC3D18D
:104C60000133B8E7012213925A1C21925B78002B82
:104C7000BCD1069B2193002313931D9B002BDBD1FA
:104C800032003B00E2E70022EDE7229A002A07D03B
:104C9000352124A802F0E9FB2299049802F060F87B
:104CA000681E042806D8FBF737FA0C0317190C0006
:104CB000249E259F059B1B07BBD580231B061F43F6
:104CC000B7E7259B684A69491A40239B249E5B18D5
:104CD0001B051A431700EDE7654FEBE70126654F0B
:104CE0007642E7E7219B5A1C21925B78302BF9D062
:104CF000002B9ED001230C93219B0A2212930023A8
:104D00000B9308930A93219804782300303BD9B27F
:104D1000092934D9059A296802F008FE002840D0F4
:104D20000020230084460A9A079005922022190049
:104D300091430A000021452A00D0BFE0059B0C9A50
:104D4000034313438B4294D0219B06930133219359
:104D5000069B5B782B2B00D182E00C002D2B05D11C
:104D60000124069B02332193069B9B781A00303A5C
:104D7000092A00D884E0069A002121929EE00A992F
:104D8000082909DC08995143CB1808930A9B013084
:104D900001330A932190B6E70B995143CB180B933B
:104DA000F4E7219A059B94460A9A634421931B7861
:104DB000002A36D0844605921A00303A092A12D9C0
:104DC00001220792B2E7219B01305A1C21925B78A5
:104DD000302BF8D01A00313A082A3CD884460020FB
:104DE000219A05901292303B421C002B13D00A21CD
:104DF0009444059A8518AA4215D10599059A01315E
:104E0000091812180591082A1BDC0A2208994A433E
:104E10009B1800220893219B1000591C21915B785C
:104E2000CAE70A98D4E7541C082A04DC089A4A43C3
:104E300008922200DFE7102CFBDC0B9A4A430B920E
:104E4000F7E7059900221029E5DC0A210B98414378
:104E50005B180B93DFE70022944605920132B0E71E
:104E60000C007EE7747B0008FFFFEFFF33040000B7
:104E70000000F07FFFFFFF7F219B5A1C21925B788F
:104E8000302BF9D01A00313A0021082A16D8303BCD
:104E9000219D0E93219B591C21915B781A00303A79
:104EA000092A32D94A1BAD4D2900082A03DC0E9984
:104EB000A94200DD2900002C00D04942059A002AB1
:104EC00049D10C9A104300D0B3E6079A002A00D0CB
:104ED000CFE64E2B25D01FDC492B00D0C9E6A049D8
:104EE00021A801F019FE002800D1C2E6219B9D49AE
:104EF000013B21A8219301F00FFE002802D1219B44
:104F000001332193984F002693E60A220E994A43D3
:104F1000D218303A0E92BDE7692BE0D06E2B00D04C
:104F2000A7E6924921A801F0F7FD002800D1A0E6EC
:104F3000219B1B78282B0CD124AA8D4921A801F094
:104F4000FFFD052805D1259B874A249E1A4317009B
:104F50006FE6884FD7E76346CB1A07930A9B002B6F
:104F600001D1059B0A93059C102C00DD10240898A4
:104F7000FDF7FCF8059B06000F00092B15DC079BCD
:104F8000002B00D155E6079B002B00DC7DE0162BA3
:104F900062DCDC00784B320019193B000868496874
:104FA000FCF79EFA06000F0043E62200724B093A16
:104FB000D2009B181A685B68FCF792FA06000B98FF
:104FC0000F00FDF7D3F80B00020039003000FBF7AB
:104FD00061FB059B06000F000F2BD0DD059B1C1B02
:104FE000079BE418002C00DC94E00F2323400AD038
:104FF0006149DB00C9183200086849683B00FCF7CA
:105000006FFA06000F000F239C436ED02633FF3348
:105010009C4248DD002405940B940A942223002628
:10502000049A514F13600B9BB34200D101E62299C1
:10503000049801F095FE0A99049801F091FE0599F3
:10504000049801F08DFE0B99049801F089FE21006F
:10505000049801F085FEECE52523059A9B1A079A32
:105060009342BBDB0F23059A434C9D1AE90061185C
:105070003200086849683B00FCF732FA079B5E1B68
:10508000F600A619326873688AE7079B1633A5DB1A
:10509000079B3000DA00384B39009B1A1A685B68AE
:1050A000FBF714FE7EE70023300039001D002411B9
:1050B000012C1DDC002B01D006000F002F4BED0052
:1050C000FF182F4B32005D19286869683B00FCF718
:1050D00007FA254B2B4A06000B4093429AD82A4ADE
:1050E000934213D90126294F7642002306937BE091
:1050F0000122144207D0224AEB009B181A685B6811
:10510000FCF7EEF9012301356410D1E7D4239B04A9
:10511000CF18EAE7002CE8D00F23644223400AD0DE
:10512000154ADB00D31830001A685B683900FBF7BA
:10513000CDFD06000F002411D7D01F2C28DD002440
:1051400005940B940A942223049A002613600B9B67
:105150000027002B00D06AE76BE5C0461F4E000019
:105160003E7B0008CB7B00080000F07F467B0008F8
:10517000887B00080000F8FF087C00080000B0FCF5
:10518000E07B00080000A07C0000907CFFFFEF7F28
:1051900010232340069301D06A2306930023300096
:1051A00039001D00002C00DD0EE1002B01D00600AF
:1051B0000F00069B002B0FD06B237900490D3A009E
:1051C0005B1A002B08DD1F2B00DC12E10026342BBC
:1051D00000DC07E1DC27BF04002200233000390097
:1051E000FBF72AF90028AAD1089B0A9A0093129982
:1051F000059B049801F00BFE0B90002800D109E7F5
:10520000079B079ADB17524213401593079B002414
:10521000DB43079ADB171A401C9205940B9B0498FA
:10522000596801F065FD0A90002800D1F6E60B9B55
:105230000B991B690C319A1C92000C30089301F0F9
:105240004EFD24AB019323AB009332003B00049846
:105250000E960F9702F08EF82290002800D1DDE61E
:105260000121049801F05AFE0590002800D1D5E6EE
:10527000239B002B00DAC1E0159A9D181C9A9446D6
:105280000699249A5B1A36219B188A1AB249013B67
:1052900001208B4200DBBDE0C91A521A1F2900DD34
:1052A000B1E08840002314901093AB1808931300CA
:1052B000069A6344D318089A0C932B00954200DD9C
:1052C00013000C9A934200DD1300002B06DD089AB0
:1052D000ED1AD21A08920C9AD21A0C92159B002B36
:1052E00017D01A000599049801F0B0FE0590002827
:1052F00000D193E60100229A049801F018FE129062
:10530000002800D18AE62299049801F029FD129B19
:105310002293089B002B00DD7FE0079B002B08DD1C
:105320001C9A0A99049801F091FE0A90002800D175
:1053300074E60C9B002B08DD1A000A99049801F012
:10534000D7FE0A90002800D168E6002D08DD2A006B
:105350000599049801F0CCFE0590002800D15DE687
:105360000A9A2299049801F02FFF041E00D155E6F5
:105370000025C3680599C560129301F00BFFA84290
:1053800055DA129BAB421BD1AE4219D13B03AB4263
:1053900016D1D622714BD2043B40934210D9636997
:1053A000AB4202D12369012B0ADD210001220498BE
:1053B00001F09EFE0599040001F0ECFE00286BDC74
:1053C000069B002B78D132E60122144207D0644AB2
:1053D000EB00D3181A685B68FCF782F801230135EB
:1053E0006410DFE60121203B494299400A40170042
:1053F000F2E6012252429A401640EDE61C9A159DB3
:10540000D21A94463CE75749CB1A010099401091B3
:1054100014904AE700231093FAE7089A2299049817
:1054200001F066FE2290002800D076E7F6E50C97A2
:10543000002800D0A0E0129A3B031B0B002A27D0C3
:10544000494A934257D10122069B52423100100033
:10545000002B0BD0D425414BED043B401000AB4258
:1054600004D86C301B0DC31A9A401000814242D1FF
:105470003E4B0C9A9A4202D14B1C00D1CEE5374BE1
:105480000C9A00261A401300802252039F1897E7B7
:10549000002B30D1002E2ED106993B002F4A002937
:1054A00020D01100D6203940C00481421ADCDC2310
:1054B0009B04994200DC46E62D4B30001B930023F1
:1054C0001A931A9A1B9B3900FCF70AF806000F0082
:1054D0000B1E00D0ABE5002800D0A8E5049A2233CB
:1054E0001360A4E501261340224A76429B181E4A07
:1054F0001A43170064E7109B002B15D00C9B109AE1
:10550000134200D15CE7129B069A30003900002B51
:105510000FD0FFF735FB02000B000E980F99FBF739
:10552000B9F806000F004BE7149B334200D147E760
:10553000E9E7FFF725FB02000B000E980F99FCF737
:1055400041FA0022002306000F00FAF775FF002839
:1055500000D0F8E534E7C04602FCFFFF0000F07F12
:10556000A07B0008E2FBFFFFFFFF0F00FFFFEF7FC4
:10557000000050390000F0FF0599200001F04EFFB7
:1055800080230022DB0508900991FAF765FF0028C7
:1055900000D17FE0129B002B4BD000228A4B10924F
:1055A0001193894B0893894A0C9B13401493149AC6
:1055B000874B9A4200D0BAE00E9A0F9B1A921B9327
:1055C000844A0C9B944663441F00109A119B300040
:1055D00039000C920D9301F05BFE02000B000C9859
:1055E0000D99FBF77DFF32003B00FBF753F8774A3C
:1055F000794B06000A409A4264D90F9B774A93423E
:1056000003D10E9B013300D108E50126734F76428A
:105610002299049801F0A4FB0A99049801F0A0FBD8
:105620000599049801F09CFB2100049801F098FB77
:10563000F4E5002E1ED10C9B1B0321D1089809997B
:105640000022614BFAF7FEFE00281FD10898099945
:105650000022634BFBF744FF0500089180221206ED
:105660009446089B1E9563441F931E9A1F9B10929D
:10567000119398E7012E03D10C9B002B00D162E51A
:105680000022584B0025109211938AE7544B129D2B
:105690000893E3E7524B089809990022FBF720FF93
:1056A000129B05000891002B07D180231B06CB1805
:1056B00016901793169A179BD9E70200089B16922B
:1056C0001793F7E7D4239B04CF18069B002B9FD199
:1056D0003E4B149A0C973B409A4299D10899280066
:1056E000FCF7D4FCFCF708FD0B0002000899280029
:1056F000FCF768F9129B08900991002B04D1002E49
:1057000002D10C9B1B0358D008980999364A374B95
:10571000FAF798FE002800D089E408980999344ADD
:105720002F4BFAF7A3FE002800D171E77FE4069B18
:10573000002B2AD0D423149ADB049A4225D82D4A70
:105740002D4B28000899FAF787FE002816D028006C
:105750000899FAF7BFFE002800D10130FCF706FDDA
:10576000129B05000891002B22D180231B06CB1829
:1057700018901993189A199B10921193D622119B85
:10578000D2049B18149A9B1A11930E980F99109E8D
:10579000119F01F07DFD02000B0030003900FBF786
:1057A0009FFE0E9A0F9BFAF775FF06000F008CE71D
:1057B0000200089B18921993DCE70B4A0F4B0898DC
:1057C0000999FAF73FFEAEE70000F03F0000F07FD6
:1057D0000000E07F0000B0FCFFFF9F7CFFFFEF7F39
:1057E0000000E03F0000F0BF9535A094FFFFDF3FD1
:1057F00035E5AF350000C0FFFFFFDF41FFFFCF3FC2
:10580000044B10B51B681B6A002B00D1024BFFF73D
:10581000CFF910BD0400002068000020F0B51F0083
:105820000E0087B00590019102920C98347801F037
:105830001EFA082200194378751C134036D12D2C0E
:1058400036D1B51C74780126002F62D0102F09D1F3
:10585000302C07D120222B789343582B54D110277A
:105860006C7802352D4B3900F31818000393FAF7C2
:10587000E3FC049101210023494202008C461800F8
:105880002100303909291AD80C00A74223DD591C00
:1058900009D06346824206D302D10499A14202DBB9
:1058A0000123784320182C780135E9E72E00BCE766
:1058B0002B2C01D01E00C7E7B51C7478FAE7210035
:1058C0004139192901D8373CDFE72100613919290D
:1058D00001D8573CD9E75A1C08D1059A23331360E5
:1058E000029B0398002B09D107B0F0BD002E00D019
:1058F0004042029A002AF7D0002B01D06B1E019380
:10590000029B019A1A60EFE73024002FAAD10827E2
:10591000A8E7302C9ED00A27A4E7C046FFFFFF7FF0
:1059200013B5054C2468246A002C00D1034C009464
:10593000FFF774FF16BDC046040000206800002079
:10594000F0B503690C6989B0070005910026A342F0
:1059500065DB0B00013C1433A50003935B19049332
:105960000300143302935D19049B28681B68591CBB
:105970000193FAF7DBFB0190B04229D0039B029818
:105980009C460696624608CA9446019A99B25143CB
:105990001B0C534389190A0C9B1807931E0C0368B0
:1059A00089B29AB2069BD2180368521A190C6B4638
:1059B0009B8BCB1A11145B18191492B21B041A4357
:1059C000049B069104C06345DCD22B68002B2DD0CC
:1059D0000599380001F0DEFB00281FDB0025019B44
:1059E0000298013303990193026808C992B25519CC
:1059F0009AB2AA1A05681B0C2D0CEB1A15145B1928
:105A00001D1492B21B04134308C0049B8B42EBD2BB
:105A1000029AA300D3181A68002A11D0019E300000
:105A200009B0F0BD2B68002B04D1013C029B043D62
:105A3000AB42F7D33C61CBE71A68002A04D1013CA2
:105A4000029A043B9A42F7D33C61E7E7F0B51600AF
:105A50001F00446A9BB00290239D06960797002C76
:105A600008D1102001F014F9029B58624460846050
:105A70000460C460029B5B6A196800290BD05A68F5
:105A8000012393404A608B60029801F069F900227B
:105A9000029B5B6A1A60002F20DA01232B607B00D7
:105AA0005B080793079CB24B220017931A409A4257
:105AB00017D1B04B229A1360069B002B03D124030D
:105AC00001D100F087FDAC4B249A0893002A02D044
:105AD000AA4B249A136008981BB0F0BD00232B60DA
